:100000000C945A000C948F000C9464000C946400BF
:100010000C9464000C9464000C9464000C946400D0
:100020000C9464000C9464000C9464000C946400C0
:100030000C9464000C9464000C9464000C946400B0
:100040000C9464000C9464000C9464000C946400A0
:100050000C9464000C9464000C9464000C94640090
:100060000C9464000C9464000C9464000C94640080
:100070000C9464000C9464000C9464000C94640070
:100080000C9464000C9464000C9464000C94640060
:100090000C9464000C9464000C9464000C94640050
:1000A0000C9464000C9464000C9464000C94640040
:1000B0000C94640011241FBECFEFD8E0DEBFCDBF8B
:1000C0000E94C4000C94F5000C940000CF93DF93C1
:1000D00000D000D0CDB7DEB71A8219821C821B82F5
:1000E00012C01C821B8205C08B819C8101969C835F
:1000F0008B838B819C81883C9105B0F389819A81A7
:1001000001969A83898389819A818439924048F340
:100110000F900F900F900F90DF91CF9108951F9245
:100120000F920FB60F9211242F933F934F935F932B
:100130006F937F938F939F93AF93BF93CF93DF93EF
:10014000EF93FF9385B1806285B9C0E0D0E003C032
:100150000E9466002196CA30D105D4F385B18F7D07
:1001600085B9FF91EF91DF91CF91BF91AF919F91B1
:100170008F917F916F915F914F913F912F910F9050
:100180000FBE0F901F90189584B1806284B985B11D
:100190008F7D85B987B18D7F87B988B1826088B935
:1001A0008AB18B7F8AB98BB184608BB9E9E6F0E0C4
:1001B0008081836080838DB381608DBB7894319919
:1001C00010C085B1806285B98AE003C00E946600D4
:1001D0008C2FCFEFC80F8111F9CF85B18F7D85B9F5
:0E01E000EECF85B18F7D85B9EACFF894FFCFC1
:00000001FF
