:100000000C945A000C946C000C946C000C946C00D2
:100010000C946C000C946C000C946C000C946C00B0
:100020000C946C000C946C000C946C000C946C00A0
:100030000C946C000C946C000C946C000C946C0090
:100040000C946C000C946C000C946C000C946C0080
:100050000C946C000C946C000C946C000C946C0070
:100060000C946C000C946C000C946C000C946C0060
:100070000C946C000C946C000C946C000C946C0050
:100080000C946C000C94AE000C946C000C946C00FE
:100090000C946C000C946C000C946C000C946C0030
:1000A0000C946C000C946C000C946C000C946C0020
:1000B0000C94D60011241FBECFEFD8E0DEBFCDBF19
:1000C00021E0A0E0B1E001C01D92A430B207E1F749
:1000D0000E946E000C9404010C94000084B18062B4
:1000E00084B914BC83E886BD85B5826085BD84B1C2
:1000F000806184B9109290008BE0809391008EE132
:1001000090E09093990080939800E1E7F0E080817F
:100110008260808384B1886084B98CE99FEF90937A
:10012000A5008093A4001092A00082E08093A1001B
:10013000E2E7F0E0808181608083789480E090E065
:10014000A89BFECF21E025BB0196803E2EE29207C0
:10015000B8F395B180E2892785B9F0CF1F920F924D
:100160000FB60F9211242F938F939F9380910201CA
:100170009091030101969093030180930201809175
:1001800002019091030181159F4340F095B180E1F8
:10019000892785B910920301109202019F918F91D6
:1001A0002F910F900FBE0F901F9018951F920F92D6
:1001B0000FB60F9211242F938F939F938CE99FEF8B
:1001C0009093A5008093A40080910001909101017B
:1001D000019690930101809300018091000190911C
:1001E000010180329E4440F095B188E0892785B9AD
:1001F00010920101109200019F918F912F910F9009
:0C0200000FBE0F901F901895F894FFCFD0
:00000001FF
