:020000020000FC
:1000000048E04EBF4FEF4DBFD0E0C0E0B2E0AFEFF1
:10001000F6E0E0E045910E941800C395C131D1F7A8
:100020000FC0F999FECFD2BDC1BDF89A40B5089571
:10003000F999FECFD2BDC1BD40BDFA9AF99A089593
:10004000F4E0E0E04591F42E4591E42E4591D42E64
:100050004591C42E0E941100142ECA950E941100D1
:10006000242ECA950E941100342ECA950E941100B8
:10007000442ECA950E941100542ECA950E94110068
:10008000642ECA950E941100742ECA950E94110018
:10009000842ECA953EE927E319E709EBCC0CDD1C59
:1000A000EE1CFF1CCC0CDD1CEE1CFF1CCC0CDD1C64
:1000B000EE1CFF1CCC0CDD1CEE1CFF1C1C0C2D1CB4
:1000C0003E1C4F1CF694E794D794C794F694E7949B
:1000D000D794C794F694E794D794C794F694E7948A
:1000E000D794C7940C0D1D1D2E1D3F1DF694E7944B
:1000F000D794C794F694E794D794C794F694E7946A
:10010000D794C794F694E794D794C794F694E79459
:10011000D794C7945C0C6D1C7E1C8F1C4326322622
:100120002126102648243724262415241C92AA951B
:100130002C92AA953C92AA954C92AA954591F42EA0
:100140004591E42E4591D42E4591C42E0E94110074
:10015000142ECA950E941100242ECA950E941100E7
:10016000342ECA950E941100442ECA950E94110097
:10017000542ECA950E941100642ECA950E94110047
:10018000742ECA950E941100842ECA953EE927E379
:1001900019E709EBCC0CDD1CEE1CFF1CCC0CDD1CA4
:1001A000EE1CFF1CCC0CDD1CEE1CFF1CCC0CDD1C63
:1001B000EE1CFF1C1C0C2D1C3E1C4F1CF694E794DF
:1001C000D794C794F694E794D794C794F694E79499
:1001D000D794C794F694E794D794C7940C0D1D1D3B
:1001E0002E1D3F1DF694E794D794C794F694E79498
:1001F000D794C794F694E794D794C794F694E79469
:10020000D794C794F694E794D794C7945C0C6D1C6C
:100210007E1C8F1C43263226212610264824372494
:10022000262415241C92AA952C92AA953C92AA9554
:060230004C92AA95FFCFDD
:100400006A694C53544C4E6461527278726D6945FE
:10060000594B544667576E76616C6F42666C7272D6
:00000001FF
