S00E000044415F3776322E7372656353
S11300000C940B020C9428020C9428020C942802E1
S11300100C9428020C9428020C9428020C942802B4
S11300200C9428020C9428020C9428020C942802A4
S11300300C9428020C9428020C9428020C94280294
S11300400C9428020C9428020C9428020C94280284
S11300500C9428020C9428020C9428020C94280274
S11300600C9428020C9428020C9428020C94280264
S11300700C9428020C9428020C9428020C94280254
S11300800C9428020C9428020C9428020C94280244
S11300900C9428020C9428020C9428020C94280234
S11300A00C9428020C9428020C9428020C94280224
S11300B00C942802084AD73B3BCE016E84BCBFFD9A
S11300C0C12F3D6C74319ABD56833DDA3D00C77F24
S11300D011BED9E4BB4C3E916BAAAABE00000080BD
S11300E03F0000407A10F35A00A0724E1809001025
S11300F0A5D4E80000E87648170000E40B54020099
S113010000CA9A3B000000E1F505000080969800C3
S1130110000040420F000000A086010000001027EC
S113012000000000E803000000006400000000007C
S11301300A00000000000100000000002C76D888AE
S1130140DC674F0823DFC1DFAE59E1B1B796E5E3C1
S1130150E453C63AE651997696E8E6C28426EB89DA
S11301608C9B62ED407C6FFCEFBC9C9F40F2BAA577
S11301706FA5F490055A2AF75C936B6CF9676DC10F
S11301801BFCE0E40D47FEF520E6B500D0ED902E13
S11301900300943577050080841E080000204E0A71
S11301A0000000C80C333333330F986E12831141AF
S11301B0EF8D2114893BE65516CFFEE6DB18D1847A
S11301C04B381BF77C1D901DA4BBE42420328472A1
S11301D05E228100C9F124ECA1E53D270000000066
S11301E000000000002F00000000070007000014BA
S11301F07F147F1400242A7F2A12006264081323C8
S113020000364955225000000503000000001C225E
S11302104100000041221C000014083E081400089C
S1130220083E0808000000A060000008080808084C
S1130230000060600000002010080402003E5149E4
S1130240453E0000427F4000004261514946002182
S113025041454B31001814127F100027454545399C
S1130260003C4A49493000017109050300364949F7
S1130270493600064949291E0000363600000000B0
S113028056360000000814224100001414141414FB
S113029000004122140800020151090600324959A4
S11302A0513E007C1211127C007F49494936003EC0
S11302B041414122007F4141221C007F494949417B
S11302C0007F09090901003E4149497A007F080875
S11302D0087F0000417F4100002040413F01007F32
S11302E008142241007F40404040007F020C027FFE
S11302F0007F0408107F003E4141413E007F090910
S11303000906003E4151215E007F09192946004635
S1130310494949310001017F0101003F4040403F0C
S1130320001F2040201F003F4038403F0063140856
S11303301463000708700807006151494543000031
S11303407F41410000552A552A55000041417F0054
S11303500004020102040040404040400000010249
S11303600400002054545478007F48444438003832
S11303704444442000384444487F003854545418BA
S113038000087E0901020018A4A4A47C007F0804CC
S113039004780000447D4000004080847D00007F9C
S11303A0102844000000417F4000007C04180478B9
S11303B0007C0804047800384444443800FC2424B5
S11303C024180018242418FC007C0804040800489D
S11303D05454542000043F444020003C4040207CBE
S11303E0001C2040201C003C4030403C00442810AD
S11303F02844001CA0A0A07C004464544C44000089
S11304000877410000000063000000004177080005
S113041000080408080411241FBECFEFD8E0DEBF93
S1130420CDBF11E0A0E0B1E0E4EEF7E102C0059039
S11304300D92A837B107D9F721E0A8E7B1E001C0D0
S11304401D92A039B207E1F70E9477050C94F00BD6
S11304500C940000DC01CB01880F991FAA1FBB1F5D
S1130460880F991FAA1FBB1F9C01AD01220F331FC8
S1130470441F551F220F331F441F551F60E074E2B1
S113048084EF90E00E9445092150310988E180936E
S1130490C10086E08093C2002093C4003093C5005D
S11304A008958093C6008091C00085FFFCCF089515
S11304B00F931F93CF93DF938C01C0E0D0E003C070
S11304C00E9451022196F801EC0FFD1F80818111D9
S11304D0F7CFDF91CF911F910F9108951092B9003A
S11304E088E48093B80084E08093BC00089584EA93
S11304F08093BC008091BC008823E4F7089584E9CC
S11305008093BC0085E38A95F1F7000008958093F9
S1130510BB0084E88093BC008091BC008823E4F78E
S11305200895CF93C82F0E94770288E70E9487021C
S113053080E00E9487028C2F0E9487020E947F0223
S1130540CF910895CF93C82F862F806B0E9491027C
S11305508C2F8F700E9491028C2F82958F708061F6
S11305600E949102CF910895CF93C82F0E947702E1
S113057088E70E94870280E40E9487028C2F0E94F1
S113058087020E947F02CF910895CF93DF9390EE6C
S1130590980F9F3508F08FE3D0EED80FC0E011C05C
S11305A02D2F30E0F901EE0FFF1FE20FF31FEE0FC6
S11305B0FF1FEC0FF11DE452FE4F84910E94B40220
S11305C0CF5FC63068F380E00E94B402DF91CF9120
S11305D00895CF93DF93EC0103C021960E94C502D6
S11305E088818111FACFDF91CF91089584EC8093B3
S11305F0BC008091BC008823E4F78091BB0008957F
S113060084E88093BC008091BC008823E4F7809147
S1130610BB000895CF93DF93D0E00DC06D2F80E031
S11306200E94A202C0E004C080E00E94B402CF5F36
S1130630CC23D4F7DF5FD83088F3DF91CF910895CE
S11306401F93CF93DF93CDB7DEB769970FB6F894B6
S1130650DEBF0FBECDBF89E1E4E0F1E0DE0111961B
S113066001900D928A95E1F72FEF81EE94E02150ED
S113067080409040E1F700C0000010E00AC0E1E0D3
S1130680F0E0EC0FFD1FE10FF11D80810E9491024B
S11306901F5F1931A0F30E940A0369960FB6F894FC
S11306A0DEBF0FBECDBFDF91CF911F910895CF93D1
S11306B0DF93D82FC62F0E94770282ED0E94870213
S11306C08D2F0E9487028C2F0E9487020E947F0236
S11306D0DF91CF910895EF92FF920F931F93CF93E1
S11306E0DF93C82F7B01D42F0E94770282ED0E94F2
S11306F087028C2F0E9487020E94770283ED0E945A
S11307008702C0E013C02C2F30E08701020F131FB3
S11307108D2F90E001972817390719F40E940003E0
S113072002C00E94F602F8018083CF5FCD1758F310
S11307300E947F02DF91CF911F910F91FF90EF9064
S1130740089566EB8EE70E9457032FEF80E792E04F
S1130750215080409040E1F700C000006AE280E44C
S11307600E94570363E081E40E9457036AE182E434
S11307700E94570360E083E40E94570361E18EE71F
S11307800E9457032FEF80E792E021508040904071
S1130790E1F700C0000065E18EE70E9457032FEFE8
S11307A080E792E0215080409040E1F700C00000D3
S11307B00895CF93DF93CDB7DEB72C970FB6F89497
S11307C0DEBF0FBECDBF4CE0BE016F5F7F4F8CE03C
S11307D00E946B0340E050E037C0CA01880F991FA4
S11307E0FC01319621E030E02C0F3D1FE20FF31F96
S11307F0208130E0322F2227E1E0F0E0EC0FFD1FF2
S1130800E80FF91F6081262BFC01EC57FE4F318362
S11308102083FC01379661E070E06C0F7D1FE60FCA
S1130820F71F208130E0322F2227FA013396EE0F92
S1130830FF1FE60FF71F6081262BFC01E657FE4FD2
S1130840318320834F5F5F4F4330510534F22C9640
S11308500FB6F894DEBF0FBECDBFDF91CF910895E0
S11308604F925F926F927F928F929F92AF92BF92BC
S1130870CF92DF92EF92FF92CF93DF93CDB7DEB7A3
S113088028970FB6F894DEBF0FBECDBFEAE8F1E0BB
S113089060817181072E000C880B990B0E94190846
S11308A020E030E040E858E30E94D4084B015C01AA
S11308B060918C0170918D01072E000C880B990BAF
S11308C00E94190820E030E040E858E30E94D40870
S11308D02B013C0160918E0170918F01072E000C59
S11308E0880B990B0E94190820E030E040E858E397
S11308F00E94D4086B017C019B01AC01C301B201CD
S11309000E94460720E030E044E353E40E94D40808
S11309102BED3FE049E450E40E94A5072B013C0184
S1130920A7019601C501B4010E94460720E030E00A
S113093044E353E40E94D4082BED3FE049E450E43F
S11309400E94A50769837A838B839C83E4E8F1E0A2
S113095060817181072E000C880B990B0E94190885
S113096023E333E343E851E40E94A507C090000168
S1130970D0900101E0900201F0900301A7019601DB
S11309800E94D4082091800130918101409182011C
S1130990509183010E94C7064B015C01609186015E
S11309A070918701072E000C880B990B0E9419087F
S11309B023E333E343E851E40E94A5079B01AC0120
S11309C0C701B6010E94D4089B01AC0160917C016F
S11309D070917D0180917E0190917F010E94C606F5
S11309E06D837E838F8398876091880170918901DC
S11309F0072E000C880B990B0E94190823E333E39C
S1130A0043E851E40E94A5079B01AC01C701B6016C
S1130A100E94D4089B01AC01609178017091790126
S1130A2080917A0190917B010E94C70660937801BE
S1130A307093790180937A0190937B0128E431EEDD
S1130A404AE75FE3C501B4010E94D4084B015C018D
S1130A502AE037ED43EA5CE3C301B2010E94D40803
S1130A609B01AC01C501B4010E94C70660938001DB
S1130A7070938101809382019093830128E431EE85
S1130A804AE75FE36D817E818F8198850E94D40857
S1130A906B017C012AE037ED43EA5CE369817A81EA
S1130AA08B819C810E94D4089B01AC01C701B601D3
S1130AB00E94C70660937C0170937D0180937E0140
S1130AC090937F0128960FB6F894DEBF0FBECDBF7A
S1130AD0DF91CF91FF90EF90DF90CF90BF90AF90D8
S1130AE09F908F907F906F905F904F900895CF93D9
S1130AF0DF93CDB7DEB7A0970FB6F894DEBF0FBE75
S1130B00CDBF0E946E0260E875E280E090E00E9432
S1130B102A020E9420030E940A0360E080E00E94EF
S1130B20A2028DE191E00E94E90262E080E00E946D
S1130B30A20284E291E00E94E90264E080E00E9463
S1130B40A2028AE291E00E94E9022FEF89E698E18D
S1130B50215080409040E1F700C000000E94A103B2
S1130B600E94D9030E9430048FE291E00E9458024F
S1130B706091800170918101809182019091830143
S1130B808E010F5F1F4F22E046E00E946709C801F3
S1130B900E94580287E391E00E9458028AE391E0A0
S1130BA00E94580260917C0170917D0180917E01C8
S1130BB090917F0122E046E00E946709C8010E94EB
S1130BC0580287E391E00E94580281E491E00E9478
S1130BD05802609178017091790180917A01909125
S1130BE07B0122E046E00E946709C8010E94580286
S1130BF087E491E00E9458028AE491E00E9458023E
S1130C000F2EFAE8EF2EF1E0FF2EF02DF7016081B0
S1130C107181072E000C880B990B0E94190820E0A3
S1130C2030E040E858E30E94D40822E046E00E9405
S1130C306709C8010E94580287E391E00E945802A4
S1130C4081E591E00E945802F70162817381072EC9
S1130C50000C880B990B0E94190820E030E040E852
S1130C6058E30E94D40822E046E00E946709C801C4
S1130C700E94580287E391E00E94580288E591E0BF
S1130C800E945802F70164817581072E000C880BBD
S1130C90990B0E94190820E030E040E858E30E94D4
S1130CA0D40822E046E00E946709C8010E94580265
S1130CB087E491E00E9458028FE591E00E94580277
S1130CC00F2EF4E8EF2EF1E0FF2EF02DF7016081F6
S1130CD07181072E000C880B990B0E94190823E3DD
S1130CE033E343E851E40E94A50722E046E00E9472
S1130CF06709C8010E94580287E391E00E945802E4
S1130D0087E691E00E945802F70162817381072E01
S1130D10000C880B990B0E94190823E333E343E882
S1130D2051E40E94A50722E046E00E946709C80139
S1130D300E94580287E391E00E9458028FE691E0F6
S1130D400E945802F70164817581072E000C880BFC
S1130D50990B0E94190823E333E343E851E40E940A
S1130D60A50722E046E00E946709C8010E945802D4
S1130D7087E491E00E945802FFEF21EE84E0F150F5
S1130D8020408040E1F700C00000EACE5058BB2765
S1130D90AA270E94DE060C9492080E94840838F068
S1130DA00E948B0820F039F49F3F19F426F40C9428
S1130DB05A080EF4E095E7FB0C945408E92F0E94BE
S1130DC0A30858F3BA17620773078407950720F03E
S1130DD079F4A6F50C94C5080EF4E0950B2EBA2F01
S1130DE0A02D0B01B90190010C01CA01A00111242D
S1130DF0FF27591B99F0593F50F4503E68F11A16D9
S1130E00F040A22F232F342F4427585FF3CF469569
S1130E1037952795A795F0405395C9F77EF41F168B
S1130E20BA0B620B730B840BBAF09150A1F0FF0F55
S1130E30BB1F661F771F881FC2F70EC0BA0F621F41
S1130E40731F841F48F4879577956795B795F79531
S1130E509E3F08F0B0CF9395880F08F09927EE0FC6
S1130E609795879508950E94840860F080E891E042
S1130E7009F49EEF0E948B0828F040E851E071F4D9
S1130E805EEF0CC00C945A080C94C508E92FE07866
S1130E900E94A30840F3092E052AB1F32617370749
S1130EA04807590738F00E2E07F8E02569F0E025C9
S1130EB0E0640AC0EF6307F8009407FADB01B901A4
S1130EC09D01DC01CA01AD01EF930E94BC070E94A1
S1130ED092080E9476075F91552339F02BED3FE08D
S1130EE049E450FD49EC0C94C7060895DF93DD27CF
S1130EF0B92FBF7740E85FE31616170648075B076C
S1130F0018F4D92F0E94CC089F938F937F936F93EB
S1130F100E944109E4EBF0E00E945D080E949208FF
S1130F202F913F914F915F910E94E708DD2351F08B
S1130F309058A2EA2AED3FE049EC5FE3D0785D27C0
S1130F400E94DE06DF910C9492080E94B9070C946B
S1130F5092080E948B0858F00E94840840F029F4FB
S1130F605F3F29F00C94540851110C94C6080C945A
S1130F705A080E94A30868F39923B1F3552391F307
S1130F80951B550BBB27AA2762177307840738F0F4
S1130F909F5F5F4F220F331F441FAA1FA9F335D051
S1130FA00E2E3AF0E0E832D091505040E695001C05
S1130FB0CAF72BD0FE2F29D0660F771F881FBB1FBF
S1130FC0261737074807AB07B0E809F0BB0B802D9D
S1130FD0BF01FF2793585F4F3AF09E3F510578F0C9
S1130FE00C9454080C94C6085F3FE4F3983ED4F381
S1130FF0869577956795B795F7959F5FC9F7880F9D
S1131000911D9695879597F90895E1E0660F771FEE
S1131010881FBB1F621773078407BA0720F0621B7F
S1131020730B840BBA0BEE1F88F7E0950895E894D0
S113103009C097FB3EF490958095709561957F4F1C
S11310408F4F9F4F9923A9F0F92F96E9BB279395CA
S1131050F695879577956795B795F111F8CFFAF4DA
S1131060BB0F11F460FF1BC06F5F7F4F8F4F9F4F0B
S113107016C0882311F096E911C0772321F09EE869
S1131080872F762F05C0662371F096E8862F70E0CF
S113109060E02AF09A95660F771F881FDAF7880FA9
S11310A09695879597F9089597F99F6780E870E07A
S11310B060E008959FEF80EC0895DF93CF931F9332
S11310C00F93FF92EF92DF927B018C01689406C02C
S11310D0DA2EEF010E94E708FE01E894A59125911C
S11310E0359145915591A6F3EF010E94DE06FE016C
S11310F09701A801DA9469F7DF90EF90FF900F91C0
S11311001F91CF91DF91089500240A9416161706B3
S113111018060906089500240A94121613061406E4
S113112005060895092E0394000C11F4882352F047
S1131130BB0F40F4BF2B11F460FF04C06F5F7F4FFF
S11311408F4F9F4F089557FD9058440F551F59F0E6
S11311505F3F71F04795880F97FB991F61F09F3FA0
S113116079F087950895121613061406551FF2CFC9
S11311704695F1DF08C0161617061806991FF1CF19
S113118086957105610508940895E894BB27662740
S11311907727CB0197F908959B01AC0160E070E0DB
S11311A080E89FE30C94A5070E94E7080C9492083A
S11311B00E94840838F00E948B0820F0952311F0D7
S11311C00C9454080C945A0811240C94C6080E94D8
S11311D0A30870F3959FC1F3950F50E0551F629FCC
S11311E0F001729FBB27F00DB11D639FAA27F00D7C
S11311F0B11DAA1F649F6627B00DA11D661F829FA3
S11312002227B00DA11D621F739FB00DA11D621F87
S1131210839FA00D611D221F749F3327A00D611DA4
S1131220231F849F600D211D822F762F6A2F112486
S11312309F5750409AF0F1F088234AF0EE0FFF1FB9
S1131240BB1F661F771F881F91505040A9F79E3F10
S1131250510580F00C9454080C94C6085F3FE4F3E5
S1131260983ED4F3869577956795B795F795E79566
S11312709F5FC1F7FE2B880F911D9695879597F96F
S113128008959B01AC010C94D408A1E21A2EAA1B68
S1131290BB1BFD010DC0AA1FBB1FEE1FFF1FA21722
S11312A0B307E407F50720F0A21BB30BE40BF50B1F
S11312B0661F771F881F991F1A9469F760957095A8
S11312C0809590959B01AC01BD01CF010895EF92EB
S11312D00F931F93CF93DF93E80147FD02C034E0DF
S11312E001C034E1042E000C550B57FF03C0519587
S11312F041955109E32E022F242FAE010E94870944
S1131300CE01DF91CF911F910F91EF900895A9E045
S1131310B0E0EDE8F9E00C94BF0B6A01122FB02E97
S11313202BE3201720F0FF24F394F00E02C02CE3EB
S1131330F22E0F2D27E0AE014F5F5F4F0E94E10AAE
S1131340BC014981842F8970813031F0E1FC06C0F1
S1131350E0FE06C090E205C09DE203C09BE201C02E
S113136090E05E2D507143FF3CC0911102C083E0B8
S113137001C084E0811718F4212F281B01C020E04C
S113138051110BC0F601822F30E2882319F03193FA
S11313908150FBCFC20ED11C20E0992329F0D60145
S11313A09C93F60131966F01C6010396E2FE0AC0D2
S11313B03EE4D6013C9341E411964C931197129666
S11313C03C9306C03EE6F601308341E64183328316
S11313D0FC01322F40E2332309F442C041933150DF
S11313E0FACF42FF44C0911102C083E001C084E0FF
S11313F0811718F4212F281B01C020E051110BC0C4
S1131400F601822F30E2882319F031938150FBCF0B
S1131410C20ED11C20E0992329F0D6019C93F60139
S113142031966F01C6010396E2FE0BC039E4D60182
S11314303C933EE411963C93119736E412963C9308
S113144007C039E6F60130833EE6318336E632835F
S1131450FC01322F40E2332319F041933150FBCF8A
S1131460FC01E20FF11D10828EEF9FEFA6C021E078
S113147030E0911102C020E030E0161617061CF48B
S1131480FB01319602C0E1E0F0E02E0F3F1FBB20CC
S113149021F0EB2DF0E0319602C0E0E0F0E02E0FF9
S11314A03F1FE12FF0E02E173F071CF4121B212FE2
S11314B001C020E08E2D887159F4F601822F30E2AC
S11314C0882319F031938150FBCFC20ED11C20E048
S11314D0992329F0D6019C93F60131966F0151119D
S11314E00BC0F601822F90E3882319F09193815069
S11314F0FBCFC20ED11C20E00F2D060F9A81342F92
S1131500307144FF03C0913309F40150101624F4E0
S1131510093018F008E001C001E0AB0177FF02C018
S113152040E050E0FB01E41BF50BA1E0B0E0AC0FA0
S1131530BD1FEA0FFB1F8EE2A82E4B01801A9108F3
S11315400B2D10E01195019511094F3FBFEF5B077B
S113155021F4D601AC9211966D01641775072CF035
S11315608416950614F4818101C080E34150510929
S11315703196D60111967D014017510724F0D6010A
S11315808C936701E2CF6417750739F4963320F41E
S1131590953319F4311101C081E3F6018083F70119
S11315A0822F90E2882319F091938150FBCFF701A9
S11315B0E20FF11D108280E090E02996ECE00C949B
S11315C0DB0B283008F027E03327DA01990F311DAF
S11315D087FD916000966105710539F432602E5FD4
S11315E03D9330E32A95E1F708959F3F30F080382A
S11315F07105610509F03C5F3C5F3D93913008F053
S11316008068911DDF93CF931F930F93FF92EF9206
S1131610192F987F9695E92F96959695E90FFF27B0
S1131620E45CFE4F99273327EE24FF24A701E7014A
S113163005900894079428F4360FE71EF81E491FF6
S1131640511D660F771F881F991F0694A1F70590F7
S1131650079428F4E70EF81E491F561FC11D770F83
S1131660881F991F661F0694A1F70590079428F414
S1131670F80E491F561FC71FD11D880F991F661FDB
S1131680771F0694A1F70590079420F4490F561F7D
S1131690C71FD81F990F661F771F881F0694A9F7C5
S11316A084911095177041F0D695C7955795479535
S11316B0F794E7941A95C1F7E2EEF0E06894159078
S11316C0159135916591959105907FE27395E11897
S11316D0F10A430B560BC90BD009C0F7E10CF11EFC
S11316E0431F561FC91FD01D7EF4703311F48A9511
S11316F0E6CFE894015030F0080F0AF400270217EF
S113170008F4202F2395022F7A3328F079E37D9370
S11317102A95E9F710C07D932A9589F60694979542
S11317206795379517951794E118F10A430B560BF3
S1131730C90BD00998F023957E9173957A3308F0FC
S113174070E37C932013B8F77E9170617D9330F041
S1131750839571E37D9370E32A95E1F71124EF906B
S1131760FF900F911F91CF91DF91992787FD90955D
S113177008952F923F924F925F926F927F928F9231
S11317809F92AF92BF92CF92DF92EF92FF920F930C
S11317901F93CF93DF93CDB7DEB7CA1BDB0B0FB616
S11317A0F894DEBF0FBECDBF09942A8839884888D3
S11317B05F846E847D848C849B84AA84B984C88469
S11317C0DF80EE80FD800C811B81AA81B981CE0F60
S11317D0D11D0FB6F894DEBF0FBECDBFED01089545
S10717E0F894FFCFA7
S11317E40AD7233CAED580A83FD300408D142000F3
S11317F4A1C8DA1281CFD9F1DB40A4A6AF50697431
S113180463683A00526F6C6C3A005961773A00503D
S1131814697463683A2000090900526F6C6C3A20B9
S1131824005961773A20000D0A00416363583A2055
S113183400416363593A20004163635A3A200047E4
S113184479726F583A20004779726F593A200047E9
S10B185479726F5A3A2000007A
S9030000FC
