:100000000C94D7000C94F4000C94F4000C94F400BD
:100010000C94F4000C94F4000C94F4000C94F40090
:100020000C94F4000C94F4000C94F4000C94F40080
:100030000C94F4000C94F4000C94F4000C94F40070
:100040000C94F4000C94F4000C94F4000C94F40060
:100050000C94F4000C94F4000C94F4000C94F40050
:100060000C94F4000C94F4000C94F4000C94F40040
:100070000C94F4000C94F4000C94F4000C94F40030
:100080000C94F4000C94F4000C94F4000C944101D2
:100090000C94F4000C94F4000C94F4000C94F40010
:1000A0000C94F4000C94F4000C94F4000C94F40000
:1000B0000C94F40000407A10F35A00A0724E180914
:1000C0000010A5D4E80000E87648170000E40B54BF
:1000D000020000CA9A3B000000E1F505000080968E
:1000E0009800000040420F000000A08601000000C0
:1000F000102700000000E80300000000640000007A
:1001000000000A00000000000100000000002C7642
:10011000D888DC674F0823DFC1DFAE59E1B1B7965D
:10012000E5E3E453C63AE651997696E8E6C28426BA
:10013000EB898C9B62ED407C6FFCEFBC9C9F40F296
:10014000BAA56FA5F490055A2AF75C936B6CF96712
:100150006DC11BFCE0E40D47FEF520E6B500D0EDD7
:10016000902E0300943577050080841E080000203F
:100170004E0A000000C80C333333330F986E1283DD
:100180001141EF8D2114893BE65516CFFEE6DB18B1
:10019000D1844B381BF77C1D901DA4BBE424203276
:1001A00084725E228100C9F124ECA1E53D2711246F
:1001B0001FBECFEFD8E0DEBFCDBF11E0A0E0B1E0C1
:1001C000EAEDF5E102C005900D92AC34B107D9F724
:1001D00021E0ACE4B1E001C01D92AE38B207E1F716
:1001E0000E9476020C94EB0A0C9400001092C50059
:1001F00087E68093C40088E18093C10086E0809305
:10020000C20008959091C00095FFFCCF8093C60076
:100210000895CF93DF93EC0103C021960E94020161
:1002200088818111FACFDF91CF91089584B18260E6
:1002300084B982E8809380008BE18093810087E815
:1002400093E190938700809386000895BC0180E03D
:1002500090E00E946E0420E030E84CEF53E40E94EE
:10026000010520E030E044E353E40E94CD0320E0A8
:1002700030E042ED52E40E9461030E943F04CB0152
:1002800008951F920F920FB60F9211248F939F9390
:1002900080914C0190914D01019690934D01809376
:1002A0004C019F918F910F900FBE0F901F9018954A
:1002B0008AB180628AB98DB18B7F8DB9109290001E
:1002C000E1E7F0E080818160808308958BB18062F6
:1002D0008BB985E38A95F1F700008BB18F7D8BB9DF
:1002E00081E48093910081E288BB10924D011092CD
:1002F0004C01C59BFECF1092950010929400E1E94D
:10030000F0E080818F7B808381E288BB10924D0179
:1003100010924C01C59BFECF209196003091970022
:1003200060914C0170914D01CB01A0E0B0E0DC0187
:1003300099278827BC01CD01620F731F811D911D74
:100340000E946E0420E030E048E652E40E94CD03B3
:1003500020E030E040E85DE30E94010520E030E06D
:1003600040E251E40E940105089584B18C6284B991
:1003700085B1837D85B980E58CBD08958EBD0DB4B2
:1003800007FEFDCF0895FF920F931F93CF93DF9346
:1003900000D000D0CDB7DEB7AC019C01ADECBCEC19
:1003A0000E9492059695879596958795969587953F
:1003B0009C01220F331F880F991F880F991F880FE8
:1003C000991F820F931F9A01281B390B29839A01C9
:1003D0000E949205FC01F695E795F695E795F6954E
:1003E000E7959F010E94920596958795969587952A
:1003F000969587959C01220F331F880F991F880FB0
:10040000991F880F991F820F931F9F01281B390B7B
:100410002A839A013695279536952795ABE7B4E15F
:100420000E949205FC01F695E7959F01ADECBCECAE
:100430000E949205969587959695879596958795AE
:100440009C01220F331F880F991F880F991F880F57
:10045000991F820F931F9F01281B390B2B839A0131
:10046000369527953695279536952795A5ECB0E2D4
:100470000E949205929582958F7089279F70892797
:100480008C830F2EF3E0FF2EF02D24C085B18B7FDF
:1004900085B90F2D0F2C000C110BE1E0F0E0EC0FF3
:1004A000FD1FE00FF11FE081F0E0EE5BFE4F808169
:1004B0000E94BE01F801E25CFE4F80810E94BE01F5
:1004C00085B1846085B98FE39FE10197F1F700C0A2
:1004D0000000FA94FF20D4F60F900F900F900F9029
:1004E000DF91CF911F910F91FF900895CF93DF93EC
:1004F000CDB7DEB760970FB6F894DEBF0FBECDBFA5
:100500000E94F6000E9416010E9458010E94B50147
:10051000789480E091E00E940901512C0F2EFCE3B9
:100520004F2EF02D0F2EFCE13F2EF02D0F2EF6E476
:100530002F2EF02DE12CF12C67C0C7010E9426015F
:1005400090938900809388000E946601A62EB72EA2
:10055000982E892E262F372F482F592F652D742D31
:10056000832D922D0E94FC04181624F45A2C4B2C37
:10057000392C282CB70180E090E00E946E049E0187
:100580002F5F3F4F3901890120E043E00E94A10520
:100590006E0139E0C30ED11C860122E046E06A2DCF
:1005A0007B2D892D982D0E94A105DF92CF927F92FD
:1005B0006F9280E291E09F938F931F9280E48F93DC
:1005C0008EE491E09F938F930E94C1058EE491E0A9
:1005D0000E940901652D742D832D922D0E943F04E8
:1005E000CB010E94C3018FEF91EE24E08150904037
:1005F0002040E1F700C0000032E0E30EF11C0FB62E
:10060000F894DEBF0FBECDBF95EBE916F10408F4F8
:1006100094CF0F2EF4EBEF2EF12CF02DC7010E949A
:10062000260190938900809388000E9466012B0127
:100630003C01B70180E090E00E946E049E012F5FB4
:100640003F4F5901890120E043E00E94A1056E015E
:1006500039E0C30ED11C860122E046E0C301B2019D
:100660000E94A105DF92CF92BF92AF9280E291E00B
:100670009F938F931F9280E48F938EE491E09F93DA
:100680008F930E94C1058EE491E00E940901C3018D
:10069000B2010E943F04CB010E94C3018FEF91EE93
:1006A00024E0815090402040E1F700C0000032E09B
:1006B000E31AF1080FB6F894DEBF0FBECDBFAECF80
:1006C0005058BB27AA270E9478030C94C2040E94AA
:1006D000B40438F00E94BB0420F039F49F3F19F4B1
:1006E00026F40C94B1040EF4E095E7FB0C94AB04F3
:1006F000E92F0E94D30458F3BA17620773078407DF
:10070000950720F079F4A6F50C94F5040EF4E09525
:100710000B2EBA2FA02D0B01B90190010C01CA01BB
:10072000A0011124FF27591B99F0593F50F4503E66
:1007300068F11A16F040A22F232F342F4427585F58
:10074000F3CF469537952795A795F0405395C9F770
:100750007EF41F16BA0B620B730B840BBAF0915028
:10076000A1F0FF0FBB1F661F771F881FC2F70EC0C7
:10077000BA0F621F731F841F48F48795779567959A
:10078000B795F7959E3F08F0B0CF9395880F08F086
:100790009927EE0F9795879508950E94E1030C9491
:1007A000C2040E94BB0458F00E94B40440F029F433
:1007B0005F3F29F00C94AB0451110C94F6040C9497
:1007C000B1040E94D30468F39923B1F3552391F344
:1007D000951B550BBB27AA2762177307840738F0B0
:1007E0009F5F5F4F220F331F441FAA1FA9F335D00D
:1007F0000E2E3AF0E0E832D091505040E695001CC1
:10080000CAF72BD0FE2F29D0660F771F881FBB1F7A
:10081000261737074807AB07B0E809F0BB0B802D58
:10082000BF01FF2793585F4F3AF09E3F510578F084
:100830000C94AB040C94F6045F3FE4F3983ED4F3BD
:10084000869577956795B795F7959F5FC9F7880F58
:10085000911D9695879597F90895E1E0660F771FAA
:10086000881FBB1F621773078407BA0720F0621B3B
:10087000730B840BBA0BEE1F88F7E09508950E9466
:10088000DB0488F09F5798F0B92F9927B751B0F043
:10089000E1F0660F771F881F991F1AF0BA95C9F704
:1008A00014C0B13091F00E94F504B1E008950C94A9
:1008B000F504672F782F8827B85F39F0B93FCCF35C
:1008C000869577956795B395D9F73EF49095809581
:1008D000709561957F4F8F4F9F4F0895E89409C0A1
:1008E00097FB3EF490958095709561957F4F8F4F63
:1008F0009F4F9923A9F0F92F96E9BB279395F69579
:10090000879577956795B795F111F8CFFAF4BB0FF6
:1009100011F460FF1BC06F5F7F4F8F4F9F4F16C05A
:10092000882311F096E911C0772321F09EE8872FE4
:10093000762F05C0662371F096E8862F70E060E0A0
:100940002AF09A95660F771F881FDAF7880F969519
:10095000879597F9089597F99F6780E870E060E0C0
:1009600008959FEF80EC089500240A941616170648
:1009700018060906089500240A9412161306140690
:1009800005060895092E0394000C11F4882352F0F3
:10099000BB0F40F4BF2B11F460FF04C06F5F7F4FAB
:1009A0008F4F9F4F089557FD9058440F551F59F092
:1009B0005F3F71F04795880F97FB991F61F09F3F4C
:1009C00079F087950895121613061406551FF2CF75
:1009D0004695F1DF08C0161617061806991FF1CFC5
:1009E00086957105610508940895E894BB276627EC
:1009F0007727CB0197F908950E946E0508F48FEFD1
:100A000008950E9414050C94C2040E94B40438F0A6
:100A10000E94BB0420F0952311F00C94AB040C94BD
:100A2000B10411240C94F6040E94D30470F3959F32
:100A3000C1F3950F50E0551F629FF001729FBB27D5
:100A4000F00DB11D639FAA27F00DB11DAA1F649F71
:100A50006627B00DA11D661F829F2227B00DA11D24
:100A6000621F739FB00DA11D621F839FA00D611DAA
:100A7000221F749F3327A00D611D231F849F600DCB
:100A8000211D822F762F6A2F11249F5750409AF0F4
:100A9000F1F088234AF0EE0FFF1FBB1F661F771F80
:100AA000881F91505040A9F79E3F510580F00C944B
:100AB000AB040C94F6045F3FE4F3983ED4F38695C0
:100AC00077956795B795F795E7959F5FC1F7FE2BEB
:100AD000880F911D9695879597F90895990F0008AD
:100AE000550FAA0BE0E8FEEF16161706E807F90700
:100AF000C0F012161306E407F50798F0621B730B9B
:100B0000840B950B39F40A2661F0232B242B252B1B
:100B100021F408950A2609F4A140A6958FEF811DBE
:100B2000811D0895A29FB001B39FC001A39F700DC6
:100B3000811D1124911DB29F700D811D1124911DE5
:100B40000895EF920F931F93CF93DF93E80147FD32
:100B500002C034E001C034E1042E000C550B57FFF5
:100B600003C0519541955109E32E022F242FAE0168
:100B70000E94D207CE01DF91CF911F910F91EF908C
:100B80000895AEE0B0E0E7ECF5E00C94C20A0D8900
:100B90001E898F89988D26E02C831A83098397FFFD
:100BA00002C080E090E801979E838D83AE01455E90
:100BB0005F4F698D7A8DCE0101960E94F1054D81BE
:100BC0005E8157FD0AC02F813885421753070CF408
:100BD0009A01F801E20FF31F10822E96E4E00C94C4
:100BE000DE0AABE0B0E0E7EFF5E00C94B40A6C018C
:100BF0007B018A01FC0117821682838181FFCCC1AF
:100C0000CE0101963C01F6019381F70193FD859198
:100C100093FF81917F01882309F4BAC1853239F4A9
:100C200093FD859193FF81917F01853229F4B6016F
:100C300090E00E941A0AE7CF912C212C312CFFE181
:100C4000F315D8F08B3279F038F4803279F08332B2
:100C5000A1F4232D20611DC08D3261F0803369F431
:100C6000232D216016C0832D8260382EE32DE46091
:100C70003E2E2AC0F32DF8601DC037FC2DC020ED9C
:100C8000280F2A3040F08E32B9F436FC81C1232D72
:100C90002064322E19C036FE06C08AE0989E200DD0
:100CA0001124922E11C0EAE02E9E200D1124222E36
:100CB000F32DF0623F2E08C08C3621F4832D80681E
:100CC000382E02C0883641F4F70193FD859193FFD9
:100CD00081917F018111B3CF982F9F7D95549330DF
:100CE00028F40C5F1F4F9FE399830DC0833631F0CA
:100CF000833771F0833509F059C021C0F801808134
:100D000089830E5F1F4F88248394912C530113C055
:100D10002801F2E04F0E511CF801A080B18036FE90
:100D200003C0692D70E002C06FEF7FEFC5010E9424
:100D30000F0A4C018201F32DFF773F2E16C02801C8
:100D400022E0420E511CF801A080B18036FE03C0A3
:100D5000692D70E002C06FEF7FEFC5010E94040AA9
:100D60004C01F32DF0683F2E820133FC1BC0822D15
:100D700090E088169906B0F4B60180E290E00E94F7
:100D80001A0A2A94F4CFF50137FC859137FE819138
:100D90005F01B60190E00E941A0A21102A9421E016
:100DA000821A91088114910471F7E8C0843611F019
:100DB000893641F5F80137FE07C060817181828173
:100DC00093810C5F1F4F08C060817181072E000C5A
:100DD000880B990B0E5F1F4FF32DFF763F2E97FF69
:100DE00009C090958095709561957F4F8F4F9F4F6B
:100DF000F0683F2E2AE030E0A3010E94560A882EB8
:100E0000861845C0853731F4232D2F7EB22E2AE077
:100E100030E025C0932D997FB92E8F36C1F018F49C
:100E2000883579F0B5C0803719F0883721F0B0C027
:100E3000E92FE061BE2EB4FE0DC0FB2DF460BF2E85
:100E400009C034FE0AC0292F2660B22E06C028E051
:100E500030E005C020E130E002C020E132E0F801DE
:100E6000B7FE07C060817181828193810C5F1F4F43
:100E700006C06081718180E090E00E5F1F4FA3018A
:100E80000E94560A882E8618FB2DFF773F2E36FECD
:100E90000DC0232D2E7FA22E891458F434FE0BC0D2
:100EA00032FC09C0832D8E7EA82E05C0B82CA32C41
:100EB00003C0B82C01C0B92CA4FE0FC0FE01E80D80
:100EC000F11D8081803321F49A2D997EA92E09C0CD
:100ED000A2FE06C0B394B39404C08A2D867809F0AC
:100EE000B394A3FC11C0A0FE06C0B21488F4280C71
:100EF000922C9B180EC0B21460F4B60180E290E010
:100F00000E941A0AB394F7CFB21418F42B1802C037
:100F1000982C212CA4FE10C0B60180E390E00E9422
:100F20001A0AA2FE17C0A1FC03C088E790E002C025
:100F300088E590E0B6010CC08A2D867859F0A1FEB4
:100F400002C08BE201C080E2A7FC8DE2B60190E016
:100F50000E941A0A891438F4B60180E390E00E94D6
:100F60001A0A9A94F7CF8A94F301E80DF11D808153
:100F7000B60190E00E941A0A8110F5CF222009F4F0
:100F800042CEB60180E290E00E941A0A2A94F6CF7F
:100F9000F6018681978102C08FEF9FEF2B96E2E1E9
:100FA0000C94D00AA9E0B0E0E8EDF7E00C94BA0A9E
:100FB0006A01122FB02E2BE3201720F0FF24F394A8
:100FC000F00E02C02CE3F22E0F2D27E0AE014F5F92
:100FD0005F4F0E942C09BC014981842F89708130A8
:100FE00031F0E1FC06C0E0FE06C090E205C09DE2E3
:100FF00003C09BE201C090E05E2D507143FF3CC0F6
:10100000911102C083E001C084E0811718F4212F00
:10101000281B01C020E051110BC0F601822F30E2E5
:10102000882319F031938150FBCFC20ED11C20E0F0
:10103000992329F0D6019C93F60131966F01C601E0
:101040000396E2FE0AC03EE4D6013C9341E41196C9
:101050004C93119712963C9306C03EE6F6013083FE
:1010600041E641833283FC01322F40E2332309F40D
:1010700042C041933150FACF42FF44C0911102C0A7
:1010800083E001C084E0811718F4212F281B01C0E0
:1010900020E051110BC0F601822F30E2882319F0B5
:1010A00031938150FBCFC20ED11C20E0992329F04F
:1010B000D6019C93F60131966F01C6010396E2FEBC
:1010C0000BC039E4D6013C933EE411963C93119752
:1010D00036E412963C9307C039E6F60130833EE6CB
:1010E000318336E63283FC01322F40E2332319F09C
:1010F00041933150FBCFFC01E20FF11D10828EEFC6
:101100009FEFA6C021E030E0911102C020E030E066
:10111000161617061CF4FB01319602C0E1E0F0E060
:101120002E0F3F1FBB2021F0EB2DF0E0319602C0C7
:10113000E0E0F0E02E0F3F1FE12FF0E02E173F0719
:101140001CF4121B212F01C020E08E2D887159F450
:10115000F601822F30E2882319F031938150FBCFC2
:10116000C20ED11C20E0992329F0D6019C93F601F0
:1011700031966F0151110BC0F601822F90E3882345
:1011800019F091938150FBCFC20ED11C20E00F2D9E
:10119000060F9A81342F307144FF03C0913309F454
:1011A0000150101624F4093018F008E001C001E0E5
:1011B000AB0177FF02C040E050E0FB01E41BF50B00
:1011C000A1E0B0E0AC0FBD1FEA0FFB1F8EE2A82E1E
:1011D0004B01801A91080B2D10E011950195110912
:1011E0004F3FBFEF5B0721F4D601AC9211966D0122
:1011F000641775072CF08416950614F4818101C0DC
:1012000080E3415051093196D60111967D01401776
:10121000510724F0D6018C936701E2CF641775075C
:1012200039F4963320F4953319F4311101C081E378
:10123000F6018083F701822F90E2882319F09193C1
:101240008150FBCFF701E20FF11D108280E090E0AA
:101250002996ECE00C94D60A283008F027E03327D2
:10126000DA01990F311D87FD9160009661057105C6
:1012700039F432602E5F3D9330E32A95E1F708950B
:101280009F3F30F080387105610509F03C5F3C5F9D
:101290003D93913008F08068911DDF93CF931F93A9
:1012A0000F93FF92EF92192F987F9695E92F9695BD
:1012B0009695E90FFF27E25FFE4F99273327EE242B
:1012C000FF24A701E70105900894079428F4360F3E
:1012D000E71EF81E491F511D660F771F881F991FB3
:1012E0000694A1F70590079428F4E70EF81E491F0D
:1012F000561FC11D770F881F991F661F0694A1F7FF
:101300000590079428F4F80E491F561FC71FD11DDA
:10131000880F991F661F771F0694A1F70590079401
:1013200020F4490F561FC71FD81F990F661F771F3C
:10133000881F0694A9F784911095177041F0D695EF
:10134000C79557954795F794E7941A95C1F7E4EB3D
:10135000F0E06894159015913591659195910590FF
:101360007FE27395E118F10A430B560BC90BD009C4
:10137000C0F7E10CF11E431F561FC91FD01D7EF49C
:10138000703311F48A95E6CFE894015030F0080FDD
:101390000AF40027021708F4202F2395022F7A332E
:1013A00028F079E37D932A95E9F710C07D932A957B
:1013B00089F6069497956795379517951794E118D0
:1013C000F10A430B560BC90BD00998F023957E9177
:1013D00073957A3308F070E37C932013B8F77E910D
:1013E00070617D9330F0839571E37D9370E32A956E
:1013F000E1F71124EF90FF900F911F91CF91DF91B2
:10140000992787FD90950895FC01059061507040E3
:101410000110D8F7809590958E0F9F1F0895FC01BD
:101420006150704001900110D8F7809590958E0F13
:101430009F1F08950F931F93CF93DF93FB01238189
:1014400021FD03C08FEF9FEF2CC022FF16C0468105
:101450005781248135814217530744F4A081B1811B
:101460009D012F5F3F4F318320838C9326813781ED
:101470002F5F3F4F3783268314C08B01EC01FB01A4
:101480000084F185E02D0995892BE1F6D8011696A7
:101490008D919C911797019617969C938E93169712
:1014A000CE01DF91CF911F910F910895FA01AA27E4
:1014B000283051F1203181F1E8946F936E7F6E5F97
:1014C0007F4F8F4F9F4FAF4FB1E03ED0B4E03CD045
:1014D000670F781F891F9A1FA11D680F791F8A1F28
:1014E000911DA11D6A0F711D811D911DA11D20D08F
:1014F00009F468943F912AE0269F11243019305D49
:101500003193DEF6CF010895462F4770405D419339
:10151000B3E00FD0C9F7F6CF462F4F70405D4A3386
:1015200018F0495D31FD4052419302D0A9F7EACF4E
:10153000B4E0A6959795879577956795BA95C9F77D
:1015400000976105710508959B01AC010A2E069470
:101550005795479537952795BA95C9F7620F731F29
:10156000841F951FA01D08952F923F924F925F9266
:101570006F927F928F929F92AF92BF92CF92DF92A3
:10158000EF92FF920F931F93CF93DF93CDB7DEB708
:10159000CA1BDB0B0FB6F894DEBF0FBECDBF09949C
:1015A0002A88398848885F846E847D848C849B84F3
:1015B000AA84B984C884DF80EE80FD800C811B8101
:1015C000AA81B981CE0FD11D0FB6F894DEBF0FBE30
:0A15D000CDBFED010895F894FFCFA0
:1015DA00416E676C65202844656772656573292CBE
:1015EA002044697374616E636520286D6D290A0051
:1015FA00416E676C653A202573B0202020446973D8
:10160A0074616E63653A202573206D6D0A00F1F2EC
:0C161A00F4F8C0F9A4B0999282F8809016
:00000001FF
