S0150000444132504152543143434F44452E7372656392
S11300000C945A000C9464000C9464000C946400E6
S11300100C9464000C9464000C9464000C946400CC
S11300200C9464000C9464000C9464000C946400BC
S11300300C9464000C9464000C9464000C946400AC
S11300400C9464000C9464000C9464000C9464009C
S11300500C9464000C9464000C9464000C9464008C
S11300600C9464000C9464000C9464000C9464007C
S11300700C9464000C9464000C9464000C9464006C
S11300800C9464000C9464000C9464000C9464005C
S11300900C9464000C9464000C9464000C9464004C
S11300A00C9464000C9464000C9464000C9464003C
S11300B00C94640011241FBECFEFD8E0DEBFCDBF87
S11300C00E948F000C94B1000C940000CF93DF9336
S11300D000D000D0CDB7DEB71A8219821C821B82F1
S11300E012C01C821B8205C08B819C8101969C835B
S11300F08B838B819C81883C9105B0F389819A81A3
S113010001969A83898389819A818439924048F33C
S11301100F900F900F900F90DF91CF91089587B1BA
S11301208D7F87B988B1826088B984B1806284B9CF
S113013085B18F7D85B9319910C085B1806285B94B
S11301408AE003C00E9466008C2FCFEFC80F811194
S1130150F9CF85B18F7D85B9EECF85B18F7D85B916
S1090160EACFF894FFCF82
S9030000FC
