:100000000C945A000C9477000C9477000C947700B1
:100010000C9477000C9477000C9477000C94770084
:100020000C9477000C9477000C94FB000C947700F0
:100030000C9477000C9477000C9477000C94770064
:100040000C9477000C9477000C9477000C94770054
:100050000C9477000C9477000C9477000C94770044
:100060000C9477000C9477000C9477000C94770034
:100070000C9477000C9477000C9477000C94770024
:100080000C9477000C9477000C9477000C94770014
:100090000C9477000C9477000C9477000C94770004
:1000A0000C9477000C9477000C9477000C947700F4
:1000B0000C94770011241FBECFEFD8E0DEBFCDBF78
:1000C00011E0A0E0B1E0E8E1FDE002C005900D9292
:1000D000A636B107D9F721E0A6E6B1E001C01D922E
:1000E000A53CB207E1F70E94C7010C948A060C9464
:1000F00000009C0140E050E060E472E48FE090E09A
:100100000E947003215031093093C5002093C40030
:1001100088E18093C10086E08093C20008959091A9
:10012000C00095FFFCCF8093C6000895CF93DF9366
:10013000EC0103C021960E948F0088818111FACFC3
:10014000DF91CF9108958091C000882324F480919D
:10015000C60090E008958FEF9FEF089587B18E7FDE
:1001600087B980E480937C0087E880937A000895C3
:100170008770806480937C00EAE7F0E0808180648F
:10018000808380917A0084FFFCCFEAE7F0E08081F1
:1001900080618083809178009091790008958AB180
:1001A00080648AB983E884BD85E085BD08958AB1FD
:1001B00080638AB98BB180628BB98BB18F7E8BB92A
:1001C000089584B18E7F84B985B1816085B910921C
:1001D0008500109284001092800080EC8093810052
:1001E00080E280936F000895E1E8F0E08081816013
:1001F0008083789408951F920F920FB60F92112466
:100200002F933F934F935F936F937F938F939F931E
:10021000AF93BF93EF93FF93809177019091780113
:10022000A0917901B0917A010196A11DB11D809331
:10023000770190937801A0937901B0937A0180E0DF
:1002400091E00E949600FF91EF91BF91AF919F9135
:100250008F917F916F915F914F913F912F910F906F
:100260000FBE0F901F9018958AC08D30910521F018
:100270008A30910509F070C040917601E42FF0E0DA
:10028000EA59FE4F1082442309F463C0809166014D
:100290008335E9F0833709F052C01DC0E22FF0E04A
:1002A000EA59FE4F308150ED530F5A30D8F4BC015B
:1002B000660F771F880F991F880F991F880F991F46
:1002C000860F971F830F911DC0972F5F07C021E0F6
:1002D00080E090E003C021E080E090E02417F0F29D
:1002E00021E001C020E0222329F18F3F910509F090
:1002F00008F580937B0121E020937C019F938F93ED
:100300008AE091E09F938F931F9288E48F938DE70B
:1003100091E09F938F930E9492038DE791E00E945A
:1003200096008DB79EB708960FB6F8949EBF0FBE85
:100330008DBF0FC083E191E00E9496000AC0813416
:1003400011F0813631F410927C0182E291E00E943A
:1003500096001092760113C0E0917601EF3048F4D8
:1003600091E09E0F90937601F0E0EA59FE4F808372
:1003700006C0109276018DE291E00E9496000E94E4
:10038000A3008F3F2FEF920709F06FCF089580E809
:1003900095E20E9479000E94AE000E94CF000E9468
:1003A000D7000E94E1000E94F4008DE391E00E94DA
:1003B0009600812C912C5401C12CD12C76010E94E5
:1003C000340180E00E94B800EC0180917C01882318
:1003D00021F080917B0187BD06C0CE01969587955F
:1003E0009695879587BD8FEFC81AD80AE80AF80A4C
:1003F00098EEC91693E0D906E104F10408F46EC042
:100400008091770190917801A0917901B0917A0162
:10041000BC01CD01681979098A099B09809077018F
:1004200090907801A0907901B0907A0161157105E2
:100430008105910549F00E94750220E030E040E717
:1004400052E40E94B20204C060E070E080E090E0FC
:1004500020917C012223E9F027B59F938F937F930E
:100460006F931F922F9383E591E09F938F931F9239
:1004700088E48F938DE791E09F938F930E9492037E
:100480008DB79EB70C960FB6F8949EBF0FBE8DBF6A
:100490001EC027B59F938F937F936F931F922F93C7
:1004A000DF93CF938CE491E09F938F931F9288E426
:1004B0008F938DE791E09F938F930E9492038DB766
:1004C0009EB70E960FB6F8949EBF0FBE8DBF8DE7F8
:1004D00091E00E949600C12CD12C76018FE99FE01B
:1004E0000197F1F700C000006ACFE89409C097FBBC
:1004F0003EF490958095709561957F4F8F4F9F4FFB
:100500009923A9F0F92F96E9BB279395F69587953E
:1005100077956795B795F111F8CFFAF4BB0F11F401
:1005200060FF1BC06F5F7F4F8F4F9F4F16C08823A8
:1005300011F096E911C0772321F09EE8872F762FDE
:1005400005C0662371F096E8862F70E060E02AF01F
:100550009A95660F771F881FDAF7880F969587950B
:1005600097F908950E94C5020C9436030E9428034F
:1005700038F00E942F0320F0952311F00C941F03F4
:100580000C94250311240C946A030E94470370F312
:10059000959FC1F3950F50E0551F629FF001729F28
:1005A000BB27F00DB11D639FAA27F00DB11DAA1F37
:1005B000649F6627B00DA11D661F829F2227B00D84
:1005C000A11D621F739FB00DA11D621F839FA00D0F
:1005D000611D221F749F3327A00D611D231F849F5F
:1005E000600D211D822F762F6A2F11249F575040B6
:1005F0009AF0F1F088234AF0EE0FFF1FBB1F661F31
:10060000771F881F91505040A9F79E3F510580F0F9
:100610000C941F030C946A035F3FE4F3983ED4F3F9
:10062000869577956795B795F795E7959F5FC1F79D
:10063000FE2B880F911D9695879597F9089597F948
:100640009F6780E870E060E008959FEF80EC089578
:1006500000240A94161617061806090608950024A1
:100660000A9412161306140605060895092E03941B
:10067000000C11F4882352F0BB0F40F4BF2B11F48F
:1006800060FF04C06F5F7F4F8F4F9F4F089557FDEE
:100690009058440F551F59F05F3F71F04795880FF0
:1006A00097FB991F61F09F3F79F087950895121687
:1006B00013061406551FF2CF4695F1DF08C0161633
:1006C00017061806991FF1CF8695710561050894E4
:1006D0000895E894BB2766277727CB0197F90895FB
:1006E000A1E21A2EAA1BBB1BFD010DC0AA1FBB1F36
:1006F000EE1FFF1FA217B307E407F50720F0A21BA8
:10070000B30BE40BF50B661F771F881F991F1A9414
:1007100069F760957095809590959B01AC01BD013E
:10072000CF010895AEE0B0E0E8E9F3E00C94610693
:100730000D891E898F89988D26E02C831A83098361
:1007400097FF02C080E090E801979E838D83AE0101
:10075000455E5F4F698D7A8DCE0101960E94C2037E
:100760004D815E8157FD0AC02F813885421753079E
:100770000CF49A01F801E20FF31F10822E96E4E0C8
:100780000C947D06ABE0B0E0E8ECF3E00C9453068B
:100790006C017B018A01FC0117821682838181FF33
:1007A000CCC1CE0101963C01F6019381F70193FD86
:1007B000859193FF81917F01882309F4BAC1853225
:1007C00039F493FD859193FF81917F01853229F45E
:1007D000B60190E00E94B905E7CF912C212C312C75
:1007E000FFE1F315D8F08B3279F038F4803279F0EC
:1007F0008332A1F4232D20611DC08D3261F080333E
:1008000069F4232D216016C0832D8260382EE32DDC
:10081000E4603E2E2AC0F32DF8601DC037FC2DC0C9
:1008200020ED280F2A3040F08E32B9F436FC81C119
:10083000232D2064322E19C036FE06C08AE0989E11
:10084000200D1124922E11C0EAE02E9E200D1124BD
:10085000222EF32DF0623F2E08C08C3621F4832D1A
:100860008068382E02C0883641F4F70193FD8591E7
:1008700093FF81917F018111B3CF982F9F7D955474
:10088000933028F40C5F1F4F9FE399830DC083368C
:1008900031F0833771F0833509F059C021C0F80178
:1008A000808189830E5F1F4F88248394912C53018C
:1008B00013C02801F2E04F0E511CF801A080B18056
:1008C00036FE03C0692D70E002C06FEF7FEFC501F7
:1008D0000E94AE054C018201F32DFF773F2E16C01A
:1008E000280122E0420E511CF801A080B18036FEA2
:1008F00003C0692D70E002C06FEF7FEFC5010E9459
:10090000A3054C01F32DF0683F2E820133FC1BC080
:10091000822D90E088169906B0F4B60180E290E04E
:100920000E94B9052A94F4CFF50137FC859137FE72
:1009300081915F01B60190E00E94B90521102A94CF
:1009400021E0821A91088114910471F7E8C084367D
:1009500011F0893641F5F80137FE07C060817181D9
:10096000828193810C5F1F4F08C060817181072EC7
:10097000000C880B990B0E5F1F4FF32DFF763F2E57
:1009800097FF09C090958095709561957F4F8F4F27
:100990009F4FF0683F2E2AE030E0A3010E94F5054A
:1009A000882E861845C0853731F4232D2F7EB22E30
:1009B0002AE030E025C0932D997FB92E8F36C1F003
:1009C00018F4883579F0B5C0803719F0883721F0F0
:1009D000B0C0E92FE061BE2EB4FE0DC0FB2DF46067
:1009E000BF2E09C034FE0AC0292F2660B22E06C0D1
:1009F00028E030E005C020E130E002C020E132E034
:100A0000F801B7FE07C060817181828193810C5F1C
:100A10001F4F06C06081718180E090E00E5F1F4F24
:100A2000A3010E94F505882E8618FB2DFF773F2E27
:100A300036FE0DC0232D2E7FA22E891458F434FECD
:100A40000BC032FC09C0832D8E7EA82E05C0B82CA9
:100A5000A32C03C0B82C01C0B92CA4FE0FC0FE010A
:100A6000E80DF11D8081803321F49A2D997EA92E05
:100A700009C0A2FE06C0B394B39404C08A2D867840
:100A800009F0B394A3FC11C0A0FE06C0B21488F410
:100A9000280C922C9B180EC0B21460F4B60180E2B0
:100AA00090E00E94B905B394F7CFB21418F42B1854
:100AB00002C0982C212CA4FE10C0B60180E390E067
:100AC0000E94B905A2FE17C0A1FC03C088E790E010
:100AD00002C088E590E0B6010CC08A2D867859F0F6
:100AE000A1FE02C08BE201C080E2A7FC8DE2B6014C
:100AF00090E00E94B905891438F4B60180E390E0D3
:100B00000E94B9059A94F7CF8A94F301E80DF11D7C
:100B10008081B60190E00E94B9058110F5CF2220B6
:100B200009F442CEB60180E290E00E94B9052A9411
:100B3000F6CFF6018681978102C08FEF9FEF2B964B
:100B4000E2E10C946F06FC010590615070400110C9
:100B5000D8F7809590958E0F9F1F0895FC016150E6
:100B6000704001900110D8F7809590958E0F9F1FCF
:100B700008950F931F93CF93DF93FB01238121FDF2
:100B800003C08FEF9FEF2CC022FF16C04681578114
:100B9000248135814217530744F4A081B1819D011E
:100BA0002F5F3F4F318320838C93268137812F5FC6
:100BB0003F4F3783268314C08B01EC01FB01008477
:100BC000F185E02D0995892BE1F6D80116968D91D6
:100BD0009C911797019617969C938E931697CE012A
:100BE000DF91CF911F910F910895FA01AA27283024
:100BF00051F1203181F1E8946F936E7F6E5F7F4FEA
:100C00008F4F9F4FAF4FB1E03ED0B4E03CD0670F65
:100C1000781F891F9A1FA11D680F791F8A1F911DB8
:100C2000A11D6A0F711D811D911DA11D20D009F408
:100C300068943F912AE0269F11243019305D31934A
:100C4000DEF6CF010895462F4770405D4193B3E033
:100C50000FD0C9F7F6CF462F4F70405D4A3318F0DA
:100C6000495D31FD4052419302D0A9F7EACFB4E08B
:100C7000A6959795879577956795BA95C9F7009743
:100C80006105710508959B01AC010A2E06945795E4
:100C9000479537952795BA95C9F7620F731F841F3B
:100CA000951FA01D08952F923F924F925F926F92D1
:100CB0007F928F929F92AF92BF92CF92DF92EF92EC
:100CC000FF920F931F93CF93DF93CDB7DEB7CA1B6D
:100CD000DB0B0FB6F894DEBF0FBECDBF09942A8898
:100CE000398848885F846E847D848C849B84AA8440
:100CF000B984C884DF80EE80FD800C811B81AA81CD
:100D0000B981CE0FD11D0FB6F894DEBF0FBECDBF97
:080D1000ED010895F894FFCFF6
:100D1800434150545552450D0A0050574D3A2575D8
:100D28000D0A00496E76616C69642050574D210D9B
:100D38000A00414443206D6F64650D0A00436D64E9
:100D480020746F6F206C6F6E67210D0A00537973E2
:100D580074656D2052656164790D0A004144433A17
:100D680025752050574D3A25752052504D3A252E5D
:060D780032660D0A0000C6
:00000001FF
